{
  "_format": "hh-sol-artifact-1",
  "contractName": "VehicleServiceHistory",
  "sourceName": "contracts/VehicleServiceHistory.sol",
  "abi": [
    {
      "inputs": [],
      "stateMutability": "nonpayable",
      "type": "constructor"
    },
    {
      "anonymous": false,
      "inputs": [
        {
          "indexed": true,
          "internalType": "address",
          "name": "center",
          "type": "address"
        },
        {
          "indexed": false,
          "internalType": "string",
          "name": "name",
          "type": "string"
        }
      ],
      "name": "ServiceCenterAdded",
      "type": "event"
    },
    {
      "anonymous": false,
      "inputs": [
        {
          "indexed": true,
          "internalType": "address",
          "name": "center",
          "type": "address"
        }
      ],
      "name": "ServiceCenterRemoved",
      "type": "event"
    },
    {
      "anonymous": false,
      "inputs": [
        {
          "indexed": true,
          "internalType": "string",
          "name": "vehicleId",
          "type": "string"
        },
        {
          "indexed": true,
          "internalType": "address",
          "name": "serviceCenter",
          "type": "address"
        },
        {
          "indexed": false,
          "internalType": "string",
          "name": "serviceType",
          "type": "string"
        },
        {
          "indexed": false,
          "internalType": "uint256",
          "name": "timestamp",
          "type": "uint256"
        }
      ],
      "name": "ServiceRecordAdded",
      "type": "event"
    },
    {
      "inputs": [
        {
          "internalType": "address",
          "name": "_center",
          "type": "address"
        },
        {
          "internalType": "string",
          "name": "_name",
          "type": "string"
        }
      ],
      "name": "addServiceCenter",
      "outputs": [],
      "stateMutability": "nonpayable",
      "type": "function"
    },
    {
      "inputs": [
        {
          "internalType": "string",
          "name": "_vehicleId",
          "type": "string"
        },
        {
          "internalType": "string",
          "name": "_serviceType",
          "type": "string"
        },
        {
          "internalType": "uint256",
          "name": "_mileage",
          "type": "uint256"
        },
        {
          "internalType": "string",
          "name": "_description",
          "type": "string"
        }
      ],
      "name": "addServiceRecord",
      "outputs": [],
      "stateMutability": "nonpayable",
      "type": "function"
    },
    {
      "inputs": [
        {
          "internalType": "address",
          "name": "",
          "type": "address"
        }
      ],
      "name": "authorizedCenters",
      "outputs": [
        {
          "internalType": "bool",
          "name": "",
          "type": "bool"
        }
      ],
      "stateMutability": "view",
      "type": "function"
    },
    {
      "inputs": [
        {
          "internalType": "string",
          "name": "_vehicleId",
          "type": "string"
        }
      ],
      "name": "getRecordCount",
      "outputs": [
        {
          "internalType": "uint256",
          "name": "",
          "type": "uint256"
        }
      ],
      "stateMutability": "view",
      "type": "function"
    },
    {
      "inputs": [
        {
          "internalType": "address",
          "name": "_center",
          "type": "address"
        }
      ],
      "name": "getServiceCenterName",
      "outputs": [
        {
          "internalType": "string",
          "name": "",
          "type": "string"
        }
      ],
      "stateMutability": "view",
      "type": "function"
    },
    {
      "inputs": [
        {
          "internalType": "string",
          "name": "_vehicleId",
          "type": "string"
        }
      ],
      "name": "getServiceHistory",
      "outputs": [
        {
          "components": [
            {
              "internalType": "uint256",
              "name": "timestamp",
              "type": "uint256"
            },
            {
              "internalType": "string",
              "name": "vehicleId",
              "type": "string"
            },
            {
              "internalType": "string",
              "name": "serviceType",
              "type": "string"
            },
            {
              "internalType": "uint256",
              "name": "mileage",
              "type": "uint256"
            },
            {
              "internalType": "string",
              "name": "description",
              "type": "string"
            },
            {
              "internalType": "address",
              "name": "serviceCenter",
              "type": "address"
            }
          ],
          "internalType": "struct VehicleServiceHistory.ServiceRecord[]",
          "name": "",
          "type": "tuple[]"
        }
      ],
      "stateMutability": "view",
      "type": "function"
    },
    {
      "inputs": [
        {
          "internalType": "string",
          "name": "_vehicleId",
          "type": "string"
        },
        {
          "internalType": "uint256",
          "name": "_index",
          "type": "uint256"
        }
      ],
      "name": "getServiceRecordByIndex",
      "outputs": [
        {
          "components": [
            {
              "internalType": "uint256",
              "name": "timestamp",
              "type": "uint256"
            },
            {
              "internalType": "string",
              "name": "vehicleId",
              "type": "string"
            },
            {
              "internalType": "string",
              "name": "serviceType",
              "type": "string"
            },
            {
              "internalType": "uint256",
              "name": "mileage",
              "type": "uint256"
            },
            {
              "internalType": "string",
              "name": "description",
              "type": "string"
            },
            {
              "internalType": "address",
              "name": "serviceCenter",
              "type": "address"
            }
          ],
          "internalType": "struct VehicleServiceHistory.ServiceRecord",
          "name": "",
          "type": "tuple"
        }
      ],
      "stateMutability": "view",
      "type": "function"
    },
    {
      "inputs": [
        {
          "internalType": "address",
          "name": "_center",
          "type": "address"
        }
      ],
      "name": "isAuthorizedCenter",
      "outputs": [
        {
          "internalType": "bool",
          "name": "",
          "type": "bool"
        }
      ],
      "stateMutability": "view",
      "type": "function"
    },
    {
      "inputs": [],
      "name": "owner",
      "outputs": [
        {
          "internalType": "address",
          "name": "",
          "type": "address"
        }
      ],
      "stateMutability": "view",
      "type": "function"
    },
    {
      "inputs": [
        {
          "internalType": "address",
          "name": "_center",
          "type": "address"
        }
      ],
      "name": "removeServiceCenter",
      "outputs": [],
      "stateMutability": "nonpayable",
      "type": "function"
    },
    {
      "inputs": [
        {
          "internalType": "address",
          "name": "",
          "type": "address"
        }
      ],
      "name": "serviceCenterNames",
      "outputs": [
        {
          "internalType": "string",
          "name": "",
          "type": "string"
        }
      ],
      "stateMutability": "view",
      "type": "function"
    }
  ],
  "bytecode": "0x6080604052348015600f57600080fd5b5033600360006101000a81548173ffffffffffffffffffffffffffffffffffffffff021916908373ffffffffffffffffffffffffffffffffffffffff16021790555061226e806100606000396000f3fe608060405234801561001057600080fd5b50600436106100a95760003560e01c80638da5cb5b116100715780638da5cb5b1461019e5780639d0dd2f6146101bc578063c3cef20a146101d8578063c401634114610208578063cc2cb80714610224578063ea162e7614610254576100a9565b80631cde3dcc146100ae5780632dc95506146100de5780632f362b611461010e5780632faee8bc1461013e578063774935321461016e575b600080fd5b6100c860048036038101906100c39190611416565b610270565b6040516100d591906115d8565b60405180910390f35b6100f860048036038101906100f39190611626565b61054c565b604051610105919061169d565b60405180910390f35b610128600480360381019061012391906116bf565b61061d565b6040516101359190611861565b60405180910390f35b61015860048036038101906101539190611626565b6108ba565b604051610165919061169d565b60405180910390f35b61018860048036038101906101839190611626565b61095a565b604051610195919061189e565b60405180910390f35b6101a661097a565b6040516101b391906118c8565b60405180910390f35b6101d660048036038101906101d191906118e3565b6109a0565b005b6101f260048036038101906101ed91906116bf565b610c92565b6040516101ff91906119ad565b60405180910390f35b610222600480360381019061021d9190611626565b610cbc565b005b61023e60048036038101906102399190611626565b610ec1565b60405161024b919061189e565b60405180910390f35b61026e600480360381019061026991906119c8565b610f17565b005b6102786111dd565b6000836040516102889190611a60565b90815260200160405180910390208054905082106102db576040517f08c379a00000000000000000000000000000000000000000000000000000000081526004016102d290611ac3565b60405180910390fd5b6000836040516102eb9190611a60565b9081526020016040518091039020828154811061030b5761030a611ae3565b5b90600052602060002090600602016040518060c00160405290816000820154815260200160018201805461033e90611b41565b80601f016020809104026020016040519081016040528092919081815260200182805461036a90611b41565b80156103b75780601f1061038c576101008083540402835291602001916103b7565b820191906000526020600020905b81548152906001019060200180831161039a57829003601f168201915b505050505081526020016002820180546103d090611b41565b80601f01602080910402602001604051908101604052809291908181526020018280546103fc90611b41565b80156104495780601f1061041e57610100808354040283529160200191610449565b820191906000526020600020905b81548152906001019060200180831161042c57829003601f168201915b505050505081526020016003820154815260200160048201805461046c90611b41565b80601f016020809104026020016040519081016040528092919081815260200182805461049890611b41565b80156104e55780601f106104ba576101008083540402835291602001916104e5565b820191906000526020600020905b8154815290600101906020018083116104c857829003601f168201915b505050505081526020016005820160009054906101000a900473ffffffffffffffffffffffffffffffffffffffff1673ffffffffffffffffffffffffffffffffffffffff1673ffffffffffffffffffffffffffffffffffffffff1681525050905092915050565b6060600260008373ffffffffffffffffffffffffffffffffffffffff1673ffffffffffffffffffffffffffffffffffffffff168152602001908152602001600020805461059890611b41565b80601f01602080910402602001604051908101604052809291908181526020018280546105c490611b41565b80156106115780601f106105e657610100808354040283529160200191610611565b820191906000526020600020905b8154815290600101906020018083116105f457829003601f168201915b50505050509050919050565b606060008260405161062f9190611a60565b9081526020016040518091039020805480602002602001604051908101604052809291908181526020016000905b828210156108af57838290600052602060002090600602016040518060c00160405290816000820154815260200160018201805461069a90611b41565b80601f01602080910402602001604051908101604052809291908181526020018280546106c690611b41565b80156107135780601f106106e857610100808354040283529160200191610713565b820191906000526020600020905b8154815290600101906020018083116106f657829003601f168201915b5050505050815260200160028201805461072c90611b41565b80601f016020809104026020016040519081016040528092919081815260200182805461075890611b41565b80156107a55780601f1061077a576101008083540402835291602001916107a5565b820191906000526020600020905b81548152906001019060200180831161078857829003601f168201915b50505050508152602001600382015481526020016004820180546107c890611b41565b80601f01602080910402602001604051908101604052809291908181526020018280546107f490611b41565b80156108415780601f1061081657610100808354040283529160200191610841565b820191906000526020600020905b81548152906001019060200180831161082457829003601f168201915b505050505081526020016005820160009054906101000a900473ffffffffffffffffffffffffffffffffffffffff1673ffffffffffffffffffffffffffffffffffffffff1673ffffffffffffffffffffffffffffffffffffffff16815250508152602001906001019061065d565b505050509050919050565b600260205280600052604060002060009150905080546108d990611b41565b80601f016020809104026020016040519081016040528092919081815260200182805461090590611b41565b80156109525780601f1061092757610100808354040283529160200191610952565b820191906000526020600020905b81548152906001019060200180831161093557829003601f168201915b505050505081565b60016020528060005260406000206000915054906101000a900460ff1681565b600360009054906101000a900473ffffffffffffffffffffffffffffffffffffffff1681565b600160003373ffffffffffffffffffffffffffffffffffffffff1673ffffffffffffffffffffffffffffffffffffffff16815260200190815260200160002060009054906101000a900460ff16610a2c576040517f08c379a0000000000000000000000000000000000000000000000000000000008152600401610a2390611bbe565b60405180910390fd5b6000845111610a70576040517f08c379a0000000000000000000000000000000000000000000000000000000008152600401610a6790611c2a565b60405180910390fd5b6000835111610ab4576040517f08c379a0000000000000000000000000000000000000000000000000000000008152600401610aab90611c96565b60405180910390fd5b60008211610af7576040517f08c379a0000000000000000000000000000000000000000000000000000000008152600401610aee90611d02565b60405180910390fd5b60006040518060c001604052804281526020018681526020018581526020018481526020018381526020013373ffffffffffffffffffffffffffffffffffffffff168152509050600085604051610b4e9190611a60565b9081526020016040518091039020819080600181540180825580915050600190039060005260206000209060060201600090919091909150600082015181600001556020820151816001019081610ba59190611ece565b506040820151816002019081610bbb9190611ece565b50606082015181600301556080820151816004019081610bdb9190611ece565b5060a08201518160050160006101000a81548173ffffffffffffffffffffffffffffffffffffffff021916908373ffffffffffffffffffffffffffffffffffffffff16021790555050503373ffffffffffffffffffffffffffffffffffffffff1685604051610c4a9190611a60565b60405180910390207f74f921192d47f6c5b798000f74166123e2c57fb697846e49f1920dd641013a9e8642604051610c83929190611fa0565b60405180910390a35050505050565b60008082604051610ca39190611a60565b9081526020016040518091039020805490509050919050565b600360009054906101000a900473ffffffffffffffffffffffffffffffffffffffff1673ffffffffffffffffffffffffffffffffffffffff163373ffffffffffffffffffffffffffffffffffffffff1614610d4c576040517f08c379a0000000000000000000000000000000000000000000000000000000008152600401610d4390612042565b60405180910390fd5b600160008273ffffffffffffffffffffffffffffffffffffffff1673ffffffffffffffffffffffffffffffffffffffff16815260200190815260200160002060009054906101000a900460ff16610dd8576040517f08c379a0000000000000000000000000000000000000000000000000000000008152600401610dcf906120ae565b60405180910390fd5b6000600160008373ffffffffffffffffffffffffffffffffffffffff1673ffffffffffffffffffffffffffffffffffffffff16815260200190815260200160002060006101000a81548160ff021916908315150217905550600260008273ffffffffffffffffffffffffffffffffffffffff1673ffffffffffffffffffffffffffffffffffffffff1681526020019081526020016000206000610e7b9190611229565b8073ffffffffffffffffffffffffffffffffffffffff167f861b607657b9b06e487b8a4dfa2ec2b217e1e4bee1b04797d7fc2a4488dc673d60405160405180910390a250565b6000600160008373ffffffffffffffffffffffffffffffffffffffff1673ffffffffffffffffffffffffffffffffffffffff16815260200190815260200160002060009054906101000a900460ff169050919050565b600360009054906101000a900473ffffffffffffffffffffffffffffffffffffffff1673ffffffffffffffffffffffffffffffffffffffff163373ffffffffffffffffffffffffffffffffffffffff1614610fa7576040517f08c379a0000000000000000000000000000000000000000000000000000000008152600401610f9e90612042565b60405180910390fd5b600073ffffffffffffffffffffffffffffffffffffffff168273ffffffffffffffffffffffffffffffffffffffff1603611016576040517f08c379a000000000000000000000000000000000000000000000000000000000815260040161100d9061211a565b60405180910390fd5b600081511161105a576040517f08c379a000000000000000000000000000000000000000000000000000000000815260040161105190612186565b60405180910390fd5b600160008373ffffffffffffffffffffffffffffffffffffffff1673ffffffffffffffffffffffffffffffffffffffff16815260200190815260200160002060009054906101000a900460ff16156110e7576040517f08c379a00000000000000000000000000000000000000000000000000000000081526004016110de90612218565b60405180910390fd5b60018060008473ffffffffffffffffffffffffffffffffffffffff1673ffffffffffffffffffffffffffffffffffffffff16815260200190815260200160002060006101000a81548160ff02191690831515021790555080600260008473ffffffffffffffffffffffffffffffffffffffff1673ffffffffffffffffffffffffffffffffffffffff168152602001908152602001600020908161118a9190611ece565b508173ffffffffffffffffffffffffffffffffffffffff167ff8c4eb3488e535a954e71704da553374f8cef8c2daaf23ff38529f199ae28e1e826040516111d1919061169d565b60405180910390a25050565b6040518060c001604052806000815260200160608152602001606081526020016000815260200160608152602001600073ffffffffffffffffffffffffffffffffffffffff1681525090565b50805461123590611b41565b6000825580601f106112475750611266565b601f0160209004906000526020600020908101906112659190611269565b5b50565b5b8082111561128257600081600090555060010161126a565b5090565b6000604051905090565b600080fd5b600080fd5b600080fd5b600080fd5b6000601f19601f8301169050919050565b7f4e487b7100000000000000000000000000000000000000000000000000000000600052604160045260246000fd5b6112ed826112a4565b810181811067ffffffffffffffff8211171561130c5761130b6112b5565b5b80604052505050565b600061131f611286565b905061132b82826112e4565b919050565b600067ffffffffffffffff82111561134b5761134a6112b5565b5b611354826112a4565b9050602081019050919050565b82818337600083830152505050565b600061138361137e84611330565b611315565b90508281526020810184848401111561139f5761139e61129f565b5b6113aa848285611361565b509392505050565b600082601f8301126113c7576113c661129a565b5b81356113d7848260208601611370565b91505092915050565b6000819050919050565b6113f3816113e0565b81146113fe57600080fd5b50565b600081359050611410816113ea565b92915050565b6000806040838503121561142d5761142c611290565b5b600083013567ffffffffffffffff81111561144b5761144a611295565b5b611457858286016113b2565b925050602061146885828601611401565b9150509250929050565b61147b816113e0565b82525050565b600081519050919050565b600082825260208201905092915050565b60005b838110156114bb5780820151818401526020810190506114a0565b60008484015250505050565b60006114d282611481565b6114dc818561148c565b93506114ec81856020860161149d565b6114f5816112a4565b840191505092915050565b600073ffffffffffffffffffffffffffffffffffffffff82169050919050565b600061152b82611500565b9050919050565b61153b81611520565b82525050565b600060c0830160008301516115596000860182611472565b506020830151848203602086015261157182826114c7565b9150506040830151848203604086015261158b82826114c7565b91505060608301516115a06060860182611472565b50608083015184820360808601526115b882826114c7565b91505060a08301516115cd60a0860182611532565b508091505092915050565b600060208201905081810360008301526115f28184611541565b905092915050565b61160381611520565b811461160e57600080fd5b50565b600081359050611620816115fa565b92915050565b60006020828403121561163c5761163b611290565b5b600061164a84828501611611565b91505092915050565b600082825260208201905092915050565b600061166f82611481565b6116798185611653565b935061168981856020860161149d565b611692816112a4565b840191505092915050565b600060208201905081810360008301526116b78184611664565b905092915050565b6000602082840312156116d5576116d4611290565b5b600082013567ffffffffffffffff8111156116f3576116f2611295565b5b6116ff848285016113b2565b91505092915050565b600081519050919050565b600082825260208201905092915050565b6000819050602082019050919050565b600060c08301600083015161174c6000860182611472565b506020830151848203602086015261176482826114c7565b9150506040830151848203604086015261177e82826114c7565b91505060608301516117936060860182611472565b50608083015184820360808601526117ab82826114c7565b91505060a08301516117c060a0860182611532565b508091505092915050565b60006117d78383611734565b905092915050565b6000602082019050919050565b60006117f782611708565b6118018185611713565b93508360208202850161181385611724565b8060005b8581101561184f578484038952815161183085826117cb565b945061183b836117df565b925060208a01995050600181019050611817565b50829750879550505050505092915050565b6000602082019050818103600083015261187b81846117ec565b905092915050565b60008115159050919050565b61189881611883565b82525050565b60006020820190506118b3600083018461188f565b92915050565b6118c281611520565b82525050565b60006020820190506118dd60008301846118b9565b92915050565b600080600080608085870312156118fd576118fc611290565b5b600085013567ffffffffffffffff81111561191b5761191a611295565b5b611927878288016113b2565b945050602085013567ffffffffffffffff81111561194857611947611295565b5b611954878288016113b2565b935050604061196587828801611401565b925050606085013567ffffffffffffffff81111561198657611985611295565b5b611992878288016113b2565b91505092959194509250565b6119a7816113e0565b82525050565b60006020820190506119c2600083018461199e565b92915050565b600080604083850312156119df576119de611290565b5b60006119ed85828601611611565b925050602083013567ffffffffffffffff811115611a0e57611a0d611295565b5b611a1a858286016113b2565b9150509250929050565b600081905092915050565b6000611a3a82611481565b611a448185611a24565b9350611a5481856020860161149d565b80840191505092915050565b6000611a6c8284611a2f565b915081905092915050565b7f496e646578206f7574206f6620626f756e647300000000000000000000000000600082015250565b6000611aad601383611653565b9150611ab882611a77565b602082019050919050565b60006020820190508181036000830152611adc81611aa0565b9050919050565b7f4e487b7100000000000000000000000000000000000000000000000000000000600052603260045260246000fd5b7f4e487b7100000000000000000000000000000000000000000000000000000000600052602260045260246000fd5b60006002820490506001821680611b5957607f821691505b602082108103611b6c57611b6b611b12565b5b50919050565b7f4e6f7420616e20617574686f72697a656420736572766963652063656e746572600082015250565b6000611ba8602083611653565b9150611bb382611b72565b602082019050919050565b60006020820190508181036000830152611bd781611b9b565b9050919050565b7f56656869636c652049442063616e6e6f7420626520656d707479000000000000600082015250565b6000611c14601a83611653565b9150611c1f82611bde565b602082019050919050565b60006020820190508181036000830152611c4381611c07565b9050919050565b7f5365727669636520747970652063616e6e6f7420626520656d70747900000000600082015250565b6000611c80601c83611653565b9150611c8b82611c4a565b602082019050919050565b60006020820190508181036000830152611caf81611c73565b9050919050565b7f4d696c65616765206d7573742062652067726561746572207468616e20300000600082015250565b6000611cec601e83611653565b9150611cf782611cb6565b602082019050919050565b60006020820190508181036000830152611d1b81611cdf565b9050919050565b60008190508160005260206000209050919050565b60006020601f8301049050919050565b600082821b905092915050565b600060088302611d847fffffffffffffffffffffffffffffffffffffffffffffffffffffffffffffffff82611d47565b611d8e8683611d47565b95508019841693508086168417925050509392505050565b6000819050919050565b6000611dcb611dc6611dc1846113e0565b611da6565b6113e0565b9050919050565b6000819050919050565b611de583611db0565b611df9611df182611dd2565b848454611d54565b825550505050565b600090565b611e0e611e01565b611e19818484611ddc565b505050565b5b81811015611e3d57611e32600082611e06565b600181019050611e1f565b5050565b601f821115611e8257611e5381611d22565b611e5c84611d37565b81016020851015611e6b578190505b611e7f611e7785611d37565b830182611e1e565b50505b505050565b600082821c905092915050565b6000611ea560001984600802611e87565b1980831691505092915050565b6000611ebe8383611e94565b9150826002028217905092915050565b611ed782611481565b67ffffffffffffffff811115611ef057611eef6112b5565b5b611efa8254611b41565b611f05828285611e41565b600060209050601f831160018114611f385760008415611f26578287015190505b611f308582611eb2565b865550611f98565b601f198416611f4686611d22565b60005b82811015611f6e57848901518255600182019150602085019450602081019050611f49565b86831015611f8b5784890151611f87601f891682611e94565b8355505b6001600288020188555050505b505050505050565b60006040820190508181036000830152611fba8185611664565b9050611fc9602083018461199e565b9392505050565b7f4f6e6c79206f776e65722063616e20706572666f726d2074686973206163746960008201527f6f6e000000000000000000000000000000000000000000000000000000000000602082015250565b600061202c602283611653565b915061203782611fd0565b604082019050919050565b6000602082019050818103600083015261205b8161201f565b9050919050565b7f536572766963652063656e746572206e6f7420617574686f72697a6564000000600082015250565b6000612098601d83611653565b91506120a382612062565b602082019050919050565b600060208201905081810360008301526120c78161208b565b9050919050565b7f496e76616c696420616464726573730000000000000000000000000000000000600082015250565b6000612104600f83611653565b915061210f826120ce565b602082019050919050565b60006020820190508181036000830152612133816120f7565b9050919050565b7f4e616d652063616e6e6f7420626520656d707479000000000000000000000000600082015250565b6000612170601483611653565b915061217b8261213a565b602082019050919050565b6000602082019050818103600083015261219f81612163565b9050919050565b7f536572766963652063656e74657220616c726561647920617574686f72697a6560008201527f6400000000000000000000000000000000000000000000000000000000000000602082015250565b6000612202602183611653565b915061220d826121a6565b604082019050919050565b60006020820190508181036000830152612231816121f5565b905091905056fea26469706673582212205d3e68b586ae31288b5a808fefcc3faf4ce3596ccd72838cb76cb2d370e7b2d064736f6c634300081b0033",
  "linkReferences": {},
  "deployedLinkReferences": {}
}